{
  "contractName": "TasksContract",
  "abi": [
    {
      "anonymous": false,
      "inputs": [
        {
          "components": [
            {
              "internalType": "uint256",
              "name": "id",
              "type": "uint256"
            },
            {
              "internalType": "string",
              "name": "title",
              "type": "string"
            },
            {
              "internalType": "string",
              "name": "description",
              "type": "string"
            },
            {
              "internalType": "bool",
              "name": "done",
              "type": "bool"
            },
            {
              "internalType": "uint256",
              "name": "createdAt",
              "type": "uint256"
            }
          ],
          "indexed": false,
          "internalType": "struct TasksContract.Task",
          "name": "",
          "type": "tuple"
        }
      ],
      "name": "TaskCreated",
      "type": "event"
    },
    {
      "anonymous": false,
      "inputs": [
        {
          "indexed": false,
          "internalType": "uint256",
          "name": "id",
          "type": "uint256"
        },
        {
          "indexed": false,
          "internalType": "bool",
          "name": "done",
          "type": "bool"
        }
      ],
      "name": "TaskToggleDone",
      "type": "event"
    },
    {
      "anonymous": false,
      "inputs": [
        {
          "indexed": false,
          "internalType": "uint256",
          "name": "id",
          "type": "uint256"
        },
        {
          "indexed": false,
          "internalType": "string",
          "name": "title",
          "type": "string"
        },
        {
          "indexed": false,
          "internalType": "string",
          "name": "description",
          "type": "string"
        },
        {
          "indexed": false,
          "internalType": "bool",
          "name": "state",
          "type": "bool"
        },
        {
          "indexed": false,
          "internalType": "uint256",
          "name": "updatedAt",
          "type": "uint256"
        }
      ],
      "name": "TaskUpdated",
      "type": "event"
    },
    {
      "inputs": [],
      "name": "taskCounter",
      "outputs": [
        {
          "internalType": "uint256",
          "name": "",
          "type": "uint256"
        }
      ],
      "stateMutability": "view",
      "type": "function",
      "constant": true
    },
    {
      "inputs": [
        {
          "internalType": "uint256",
          "name": "",
          "type": "uint256"
        }
      ],
      "name": "tasks",
      "outputs": [
        {
          "internalType": "uint256",
          "name": "id",
          "type": "uint256"
        },
        {
          "internalType": "string",
          "name": "title",
          "type": "string"
        },
        {
          "internalType": "string",
          "name": "description",
          "type": "string"
        },
        {
          "internalType": "bool",
          "name": "done",
          "type": "bool"
        },
        {
          "internalType": "uint256",
          "name": "createdAt",
          "type": "uint256"
        }
      ],
      "stateMutability": "view",
      "type": "function",
      "constant": true
    },
    {
      "inputs": [
        {
          "internalType": "string",
          "name": "_title",
          "type": "string"
        },
        {
          "internalType": "string",
          "name": "_description",
          "type": "string"
        }
      ],
      "name": "createTask",
      "outputs": [],
      "stateMutability": "nonpayable",
      "type": "function"
    },
    {
      "inputs": [
        {
          "internalType": "uint256",
          "name": "_id",
          "type": "uint256"
        }
      ],
      "name": "toggleDone",
      "outputs": [],
      "stateMutability": "nonpayable",
      "type": "function"
    },
    {
      "inputs": [
        {
          "internalType": "uint256",
          "name": "id",
          "type": "uint256"
        },
        {
          "internalType": "string",
          "name": "_title",
          "type": "string"
        },
        {
          "internalType": "string",
          "name": "_description",
          "type": "string"
        }
      ],
      "name": "updateTask",
      "outputs": [],
      "stateMutability": "nonpayable",
      "type": "function"
    }
  ],
  "bytecode": "0x60806040526000805534801561001457600080fd5b50610e57806100246000396000f3fe608060405234801561001057600080fd5b50600436106100575760003560e01c8063292a45851461005c57806358671730146100785780638d97767214610096578063c72ef41f146100ca578063d81ef739146100e6575b600080fd5b610076600480360381019061007191906108b1565b610102565b005b610080610218565b60405161008d9190610942565b60405180910390f35b6100b060048036038101906100ab9190610989565b61021e565b6040516100c1959493929190610a59565b60405180910390f35b6100e460048036038101906100df9190610aba565b610371565b005b61010060048036038101906100fb9190610989565b610464565b005b60008081548092919061011490610b74565b91905055506040518060a00160405280600054815260200183815260200182815260200160001515815260200142815250600160008054815260200190815260200160002060008201518160000155602082015181600101908051906020019061017f9291906106b4565b50604082015181600201908051906020019061019c9291906106b4565b5060608201518160030160006101000a81548160ff021916908315150217905550608082015181600401559050507f3e9b8a1c816d8569c3d01e359ad9b710511c5292110105828c36580d730ee27d600160008054815260200190815260200160002060405161020c9190610dd6565b60405180910390a15050565b60005481565b600160205280600052604060002060009150905080600001549080600101805461024790610c2b565b80601f016020809104026020016040519081016040528092919081815260200182805461027390610c2b565b80156102c05780601f10610295576101008083540402835291602001916102c0565b820191906000526020600020905b8154815290600101906020018083116102a357829003601f168201915b5050505050908060020180546102d590610c2b565b80601f016020809104026020016040519081016040528092919081815260200182805461030190610c2b565b801561034e5780601f106103235761010080835404028352916020019161034e565b820191906000526020600020905b81548152906001019060200180831161033157829003601f168201915b5050505050908060030160009054906101000a900460ff16908060040154905085565b6040518060a0016040528084815260200183815260200182815260200160001515815260200142815250600160008581526020019081526020016000206000820151816000015560208201518160010190805190602001906103d49291906106b4565b5060408201518160020190805190602001906103f19291906106b4565b5060608201518160030160006101000a81548160ff021916908315150217905550608082015181600401559050507f8741e716627835f41956df81a7680acf1fc012f317a453d65b9abda3f46641cc838383600042604051610457959493929190610a59565b60405180910390a1505050565b6000600160008381526020019081526020016000206040518060a00160405290816000820154815260200160018201805461049e90610c2b565b80601f01602080910402602001604051908101604052809291908181526020018280546104ca90610c2b565b80156105175780601f106104ec57610100808354040283529160200191610517565b820191906000526020600020905b8154815290600101906020018083116104fa57829003601f168201915b5050505050815260200160028201805461053090610c2b565b80601f016020809104026020016040519081016040528092919081815260200182805461055c90610c2b565b80156105a95780601f1061057e576101008083540402835291602001916105a9565b820191906000526020600020905b81548152906001019060200180831161058c57829003601f168201915b505050505081526020016003820160009054906101000a900460ff16151515158152602001600482015481525050905080606001511581606001901515908115158152505080600160008481526020019081526020016000206000820151816000015560208201518160010190805190602001906106289291906106b4565b5060408201518160020190805190602001906106459291906106b4565b5060608201518160030160006101000a81548160ff021916908315150217905550608082015181600401559050507f389dee00d487dd41dd5bf0f43eeaa5b663b3af022d52368df89d388150295f458282606001516040516106a8929190610df8565b60405180910390a15050565b8280546106c090610c2b565b90600052602060002090601f0160209004810192826106e25760008555610729565b82601f106106fb57805160ff1916838001178555610729565b82800160010185558215610729579182015b8281111561072857825182559160200191906001019061070d565b5b509050610736919061073a565b5090565b5b8082111561075357600081600090555060010161073b565b5090565b6000604051905090565b600080fd5b600080fd5b600080fd5b600080fd5b6000601f19601f8301169050919050565b7f4e487b7100000000000000000000000000000000000000000000000000000000600052604160045260246000fd5b6107be82610775565b810181811067ffffffffffffffff821117156107dd576107dc610786565b5b80604052505050565b60006107f0610757565b90506107fc82826107b5565b919050565b600067ffffffffffffffff82111561081c5761081b610786565b5b61082582610775565b9050602081019050919050565b82818337600083830152505050565b600061085461084f84610801565b6107e6565b9050828152602081018484840111156108705761086f610770565b5b61087b848285610832565b509392505050565b600082601f8301126108985761089761076b565b5b81356108a8848260208601610841565b91505092915050565b600080604083850312156108c8576108c7610761565b5b600083013567ffffffffffffffff8111156108e6576108e5610766565b5b6108f285828601610883565b925050602083013567ffffffffffffffff81111561091357610912610766565b5b61091f85828601610883565b9150509250929050565b6000819050919050565b61093c81610929565b82525050565b60006020820190506109576000830184610933565b92915050565b61096681610929565b811461097157600080fd5b50565b6000813590506109838161095d565b92915050565b60006020828403121561099f5761099e610761565b5b60006109ad84828501610974565b91505092915050565b600081519050919050565b600082825260208201905092915050565b60005b838110156109f05780820151818401526020810190506109d5565b838111156109ff576000848401525b50505050565b6000610a10826109b6565b610a1a81856109c1565b9350610a2a8185602086016109d2565b610a3381610775565b840191505092915050565b60008115159050919050565b610a5381610a3e565b82525050565b600060a082019050610a6e6000830188610933565b8181036020830152610a808187610a05565b90508181036040830152610a948186610a05565b9050610aa36060830185610a4a565b610ab06080830184610933565b9695505050505050565b600080600060608486031215610ad357610ad2610761565b5b6000610ae186828701610974565b935050602084013567ffffffffffffffff811115610b0257610b01610766565b5b610b0e86828701610883565b925050604084013567ffffffffffffffff811115610b2f57610b2e610766565b5b610b3b86828701610883565b9150509250925092565b7f4e487b7100000000000000000000000000000000000000000000000000000000600052601160045260246000fd5b6000610b7f82610929565b91507fffffffffffffffffffffffffffffffffffffffffffffffffffffffffffffffff8203610bb157610bb0610b45565b5b600182019050919050565b60008160001c9050919050565b6000819050919050565b6000610be6610be183610bbc565b610bc9565b9050919050565b610bf681610929565b82525050565b7f4e487b7100000000000000000000000000000000000000000000000000000000600052602260045260246000fd5b60006002820490506001821680610c4357607f821691505b602082108103610c5657610c55610bfc565b5b50919050565b600082825260208201905092915050565b60008190508160005260206000209050919050565b60008154610c8f81610c2b565b610c998186610c5c565b94506001821660008114610cb45760018114610cc657610cf9565b60ff1983168652602086019350610cf9565b610ccf85610c6d565b60005b83811015610cf157815481890152600182019150602081019050610cd2565b808801955050505b50505092915050565b600060ff82169050919050565b6000610d22610d1d83610bbc565b610d02565b9050919050565b610d3281610a3e565b82525050565b600060a083016000808401549050610d4f81610bd3565b610d5c6000870182610bed565b50600184018583036020870152610d738382610c82565b925050600284018583036040870152610d8c8382610c82565b92505060038401549050610d9f81610d0f565b610dac6060870182610d29565b5060048401549050610dbd81610bd3565b610dca6080870182610bed565b50819250505092915050565b60006020820190508181036000830152610df08184610d38565b905092915050565b6000604082019050610e0d6000830185610933565b610e1a6020830184610a4a565b939250505056fea264697066735822122094863a5de521b2a4b7a31c8c7faee6606b890efc2df94966870a426ca8773ae764736f6c634300080e0033",
  "immutableReferences": {},
  "source": "// SPDX-License-Identifier: MIT\r\npragma solidity 0.8.14;\r\n\r\ncontract TasksContract {\r\n\r\n    uint public taskCounter = 0;\r\n\r\n    // constructor (){ //executes the first time\r\n    //     createTask(\"Sample task\", \"Gotta do something\");\r\n    // }\r\n\r\n    struct Task {\r\n        uint256 id;\r\n        string title;\r\n        string description;\r\n        bool done;\r\n        uint256 createdAt; //timestamp is built by integers and then converted\r\n    }\r\n\r\n    event TaskCreated(\r\n        Task\r\n    ); //returns a Task type object\r\n\r\n    event TaskToggleDone(uint id, bool done);\r\n\r\n    event TaskUpdated(\r\n        uint256 id,\r\n        string title,\r\n        string description,\r\n        bool state,\r\n        uint256 updatedAt\r\n    );\r\n\r\n\r\n    mapping (uint256 => Task) public tasks; //each id will reference a task\r\n\r\n    function createTask(string memory _title, string memory _description) public {\r\n        /* title and description don't need to be stored in the blockchain, \r\n        just in memory while executing. That's why we use \"memory\"*/\r\n        //block has a property called timestamp and it has the current time when the data is stored\r\n        taskCounter++;\r\n        tasks[taskCounter] = Task(taskCounter, _title, _description, false, block.timestamp);\r\n        emit TaskCreated(tasks[taskCounter]);\r\n    }\r\n\r\n    function toggleDone(uint _id) public {\r\n        Task memory  _task = tasks[_id];\r\n        _task.done = !_task.done;\r\n        tasks[_id] = _task;\r\n        emit TaskToggleDone(_id, _task.done);\r\n    }\r\n\r\n    function updateTask(uint id, string memory _title, string memory _description) public {\r\n        tasks[id] = Task(id, _title, _description, false, block.timestamp);\r\n        emit TaskUpdated(id, _title, _description, false, block.timestamp);\r\n    }\r\n\r\n}",
  "sourcePath": "D:\\Documentos\\U de A\\Posgrado\\Big Data\\blockchain-notes-app\\blockchain-notes-app\\contracts\\TasksContract.sol",
  "compiler": {
    "name": "solc",
    "version": "0.8.14+commit.80d49f37.Emscripten.clang"
  },
  "schemaVersion": "3.4.7",
  "updatedAt": "2022-06-11T22:54:30.058Z",
  "networkType": "ethereum",
  "devdoc": {
    "kind": "dev",
    "methods": {},
    "version": 1
  },
  "userdoc": {
    "kind": "user",
    "methods": {},
    "version": 1
  }
}